:1000000019C033C032C031C030C02FC02EC02DC087
:100010002CC02BC02AC029C028C027C026C025C09C
:1000200024C023C022C021C020C01FC01EC01DC0CC
:100030001CC01BC011241FBECFEFD2E0DEBFCDBF5E
:1000400011E0A0E0B1E0E8E4F7E002C005900D9215
:10005000A431B107D9F711E0A4E1B1E001C01D92CC
:10006000AA31B107E1F768D06DC3CACF8A3049F031
:100070009091C00095FFFCCF8093C60080E090E097
:1000800008959091C00095FFFCCF9DE09093C6002D
:10009000EFCF9093C5008093C40088E18093C100A6
:1000A0008EE08093C20008958091C00087FFFCCF4E
:1000B0008091C60008959091C00095FFFCCF809379
:1000C000C60008958091C000881F8827881F089562
:1000D000FC019081992351F031968091C00085FFF9
:1000E000FCCF9093C60091919923B9F70895809120
:1000F0007A00806480937A0080917A0086FDFCCF3C
:100100002091780030917900C9010895EAE7F0E084
:10011000808180688083808184608083ECE7F0E068
:10012000808182608083808184608083808180641C
:1001300080838081808308950F931F93CF93DF93F3
:100140001092C5008FE28093C40088E18093C100C3
:100150008EE08093C200DADF85E091E09093170192
:1001600080931601C0E0D0E000E011E080917A00B9
:10017000806480937A0080917A0086FDFCCF809124
:1001800078009091790000D000D0EDB7FEB71283CF
:100190000183948383830FD00F900F900F900F9063
:1001A000CE31D10514F42196E1CF8AE090E015D04C
:1001B000C1E0D0E0DBCFA0E0B0E0E0EEF0E09BC239
:1001C000FE01359661917191809116019091170110
:1001D000AF0109D02096E2E0AAC2609116017091A9
:1001E0001701EFD10895ACE0B0E0E8EFF0E073C2A2
:1001F0006C011B018A01FC0117821682838181FF39
:10020000C4C12E010894411C511CF6019381F101D7
:1002100093FD859193FF81911F01882309F4B1C15A
:10022000853239F493FD859193FF81911F018532C9
:1002300021F490E0B601C5D1E8CFEE24FF2420E000
:100240002032B0F48B3269F08C3228F4803251F0D5
:10025000833271F40BC08D3239F0803349F4216060
:100260002CC02260246029C0286027C0206125C0DE
:1002700027FD2CC0382F30533A3098F426FF08C0A1
:100280008E2D880FE82EEE0CEE0CE80EE30E15C056
:100290008F2D880FF82EFF0CFF0CF80EF30E206246
:1002A0000CC08E3221F426FD6CC1206406C08C3651
:1002B00011F4206802C0883649F4F10193FD85915C
:1002C00093FF81911F01882309F0BACF982F95548D
:1002D000933018F09052933028F40C5F1F4FFFE3D7
:1002E000F9830DC0833631F0833771F0833509F01F
:1002F0005CC021C0F801808189830E5F1F4F4201DD
:1003000071E0A72EB12C15C062E0662E712C600E34
:10031000711EF8018080918026FF03C06E2D70E071
:1003200002C06FEF7FEFC4012C8740D15C018301D5
:100330002C852F7716C052E0652E712C600E711E31
:10034000F8018080918026FF03C06E2D70E002C00E
:100350006FEF7FEFC4012C871ED15C012C852068D4
:10036000830123FD1EC007C080E290E0B6012C8708
:1003700028D1FA942C858F2D90E0A816B906A0F309
:1003800010C0F40127FD859127FF81914F0190E076
:10039000B6012C8716D12C85F110FA940894A10887
:1003A000B108A114B10469F7E9C0843611F08936A7
:1003B00041F527FF08C0F801608171818281938136
:1003C0000C5F1F4F09C0F80160817181882777FD9C
:1003D0008095982F0E5F1F4F4FE6B42EB22297FFE5
:1003E00009C090958095709561957F4F8F4F9F4F75
:1003F000F0E8BF2AA2012AE030E00FD1782E74186D
:1004000044C0853731F43FEEB32EB2222AE030E00B
:1004100025C099EFB92EB2228F36C1F0803720F473
:10042000883509F0AEC00DC0803721F0883709F05B
:10043000A8C002C020E1B22AB4FE0BC084E0B82AF2
:1004400008C0B4FE09C0E6E0BE2A06C028E030E0DD
:1004500005C020E130E002C020E132E0B7FE08C074
:10046000F80160817181828193810C5F1F4F07C009
:10047000F8016081718180E090E00E5F1F4FA20162
:10048000CCD0782E7418FFE7BF22B6FE0BC02EEF3B
:10049000B2227E1438F4B4FE07C0B2FC05C08FEE61
:1004A000B82202C0A72C01C0AE2C8B2D90E0B4FE68
:1004B0000DC0FE01E70DF11D2081203319F4E9EE96
:1004C000BE2209C0A394B2FE06C004C08678907014
:1004D000009709F0A3948B2C9924B3FC13C0B0FEB1
:1004E0000EC0AF1428F4E72CEF0CEA18AF2C07C0AD
:1004F000E72C05C080E290E0B60163D0A394AF146E
:10050000C8F304C0AF1410F4FA1801C0FF2484FE2D
:100510000EC080E390E0B60154D082FE1DC081FE83
:1005200003C088E590E010C088E790E00DC0C401EA
:1005300086789070009781F081FC02C080E201C053
:100540008BE2B7FC8DE290E0B6013BD005C080E3C2
:1005500090E0B60136D0EA947E14C8F37A94F201A2
:10056000E70DF11D808190E0B6012BD07720B1F727
:1005700005C080E290E0B60124D0FA94FF20C9F7CC
:1005800044CEF6012681378102C02FEF3FEFC9012B
:100590002C96E2E1BCC0FC01059061507040011056
:1005A000D8F7809590958E0F9F1F0895FC0161509C
:1005B000704001900110D8F7809590958E0F9F1F85
:1005C00008950F931F93CF93DF938C01EB018B81E1
:1005D00081FF1BC082FF0DC02E813F818C819D81D8
:1005E0002817390764F4E881F9810193F983E883D6
:1005F00006C0E885F985802F0995009731F48E8132
:100600009F8101969F838E8302C00FEF1FEFC80169
:10061000DF91CF911F910F910895FA01AA272830F9
:1006200051F1203181F1E8946F936E7F6E5F7F4FBF
:100630008F4F9F4FAF4FB1E03ED0B4E03CD0670F3B
:10064000781F891F9A1FA11D680F791F8A1F911D8E
:10065000A11D6A0F711D811D911DA11D20D009F4DE
:1006600068943F912AE0269F11243019305D319320
:10067000DEF6CF010895462F4770405D4193B3E009
:100680000FD0C9F7F6CF462F4F70405D4A3318F0B0
:10069000495D31FD4052419302D0A9F7EACFB4E061
:1006A000A6959795879577956795BA95C9F7009719
:1006B0006105710508959B01AC010A2E06945795BA
:1006C000479537952795BA95C9F7620F731F841F11
:1006D000951FA01D08952F923F924F925F926F92A7
:1006E0007F928F929F92AF92BF92CF92DF92EF92C2
:1006F000FF920F931F93CF93DF93CDB7DEB7CA1B43
:10070000DB0B0FB6F894DEBF0FBECDBF09942A886D
:10071000398848885F846E847D848C849B84AA8415
:10072000B984C884DF80EE80FD800C811B81AA81A2
:10073000B981CE0FD11D0FB6F894DEBF0FBECDBF6D
:08074000ED010895F894FFCFCC
:10074800253464200000000002000000003600008C
:04075800000000009D
:00000001FF
